:0400000030EF23F0CA
:08000800046ED8CF05F0E0CF33
:1000100006F00001E9CF0CF0EACF07F0E1CF08F0DD
:10002000E2CF09F0D9CF0AF0DACF0BF0F3CF12F01C
:10003000F4CF13F0FACF14F0F5CF15F0F6CF16F099
:10004000F7CF17F000C00EF001C00FF002C010F0A3
:1000500003C011F0F2AA30EF00F0F2B4D8EF07F0CD
:100060009DA036EF00F09EB046EF08F09DA23CEF59
:1000700000F09EB2DAEF09F0A0A242EF00F0A1B2C8
:10008000F9EF09F0A0A048EF00F0A1B027EF0AF0C7
:10009000A0AA4EEF00F0A1BA59EF07F00EC000F091
:1000A0000FC001F010C002F011C003F00CC0E9FF56
:1000B00007C0EAFF078E08C0E1FF09C0E2FF0AC0DF
:1000C000D9FF0BC0DAFF12C0F3FF13C0F4FF14C056
:1000D000FAFF15C0F5FF16C0F6FF17C0F7FF045072
:1000E00006C0E0FF05C0D8FF1000F76AFA0FF66EF1
:1000F000000EF7220900F55012000003FFFFFFFF7A
:10010000FFFFFFFFFFFFFFFFFFFFF76A1A0FF66E0B
:10011000010EF7220900F5501200400040000000D7
:1001200000000000000000000000000000000000CF
:1001300000000000000000000000F76A4A0FF66EA1
:10014000010EF7220900F55012000600FF0901A177
:1001500001190129081580257F7508953F8102192D
:100160000129087508953F9102C0F76A7A0FF66E6B
:10017000010EF7220900F55012000000F76A8C0FFB
:10018000F66E010EF7220900F55012002000F76A02
:100190009E0FF66E010EF7220900F55012000902BB
:1001A000290001010080FA09040000020300000098
:1001B0000921000100012220000705810340000AF7
:1001C0000705010340000A00F76AD80FF66E010E1A
:1001D000F7220900F55012000100F76AEA0FF66EE7
:1001E000010EF7220900F55012001200F76AFC0F09
:1001F000F66E010EF7220900F550120012011001EF
:100200000000004061042000000101020001F76AC3
:100210001E0FF66E020EF7220900F55012000403BD
:1002200009040A0347006F0047006F0016034700E8
:100230006F0047006F00200042006F0061007200F5
:1002400064006D92699468A402D06894FCD765EF4D
:1002500007F0400E0401016F040E0501616F100EDE
:1002600061C503F4E8CF02F4880E0401006F046B4B
:10027000040E076F500E066F0001120070A002D02E
:10028000E8DF7090689A6CEF07F06A6A689271EF25
:1002900007F005016D916CBF6D816C9F6C5110086A
:1002A00003E2000E016E1AD06DA10DD0036A6C51ED
:1002B00000011BDFFF0802E1000E01D0010E016EFC
:1002C00005010CD00BD0036A6C5100010EDFFF0852
:1002D00002E1000E01D0010E016E050100011200C5
:1002E00005016C516E03F3CF01F0F4CF00F06F0302
:1002F000F35000266D516E03F3500020026E000192
:100300001200036A05016B51700FE96E0F0E032096
:10031000EA6EEF6A6BC56CF50001BBDF015228E0A5
:1003200005016D6B6BC56CF56F6B080E6E6F000190
:10033000D7DF050101C0E9FF040E0224EA6EEF6A6F
:100340006D6B6BC56CF56F6B080E6E6F0001C8DFCF
:1003500002C06DF501C06CF5040E05016C27000E9E
:100360006D236CC5E9FF040E6D25EA6EEF6A00018E
:100370001200010E05016A6F6A510F0807E36AC592
:100380006BF50001BEDF05016A2BF6D700011200F4
:10039000286A276A0501606B60530AE1036A6051AD
:1003A000290FE96E000E0320EA6EEF6A602BF4D786
:1003B0001B6A010E1C6E1A6A000112006896120078
:1003C0006A6A686A9F0E6B6E3D0E696E6E6AD1DF57
:1003D000DFDF160E706E68A602D0F0DFFCD76D98D6
:1003E00038DF030E226E76EF07F0698468986D821D
:1003F0007BEF07F0689C80EF07F065C523F01200E3
:10040000236812000501636B275028103DE06351FB
:100410003F083AE31D50FC0F25E2040F000150EFA6
:1004200002F026C003F02550B2DEE8CF64F50501E6
:1004300019D026C003F0255080DEE8CF64F5050111
:1004400011D026C003F02550E2DEE8CF64F50501A7
:1004500009D026C003F02550C9DEE8CF64F50501B8
:1004600001D00501252AD8B4262A2750D8B4280659
:1004700027066351632B500FE96E040EEA6ED8B065
:10048000EA2A64C5EFFFC0D72750281004E1635162
:10049000400801E01A6A63C565F50001AEDF12008D
:1004A000E824F76AF736BB0FF66E040EF7220A004F
:1004B000F550FA6E0800F550F96E22043204420439
:1004C0005204266A256A1D6A04011351010A0001BB
:1004D00009E0030A0DE0010A0FE0220A24E0030A02
:1004E0003BE056D0286A120E276E030E1D6E52D0C6
:1004F000286A290E276E4ED0020E1D6E036A040173
:1005000012511E0FE96E000E0320EA6E266AEFCF2D
:1005100025F026C003F02550000179DE036A276E1E
:1005200003C028F037D0036A04011251000155DEE0
:10053000036A256E03C026F0253C02D026520AE04D
:1005400026C003F0255023DE036A276E03C028F07F
:1005500021D002D055DF2DD0036A040114510001CF
:1005600004DE036A256E03C026F0253C02D0265225
:100570000DE0010E1D6E036A040114510001FEDD41
:10058000036A276E03C028F005D002D039DF11D0EE
:1005900037DF0FD00401175308E1285203E1275039
:1005A000165D03E2286A16C427F0010E1A6E0001D8
:1005B00029DF12000501625306E1040E226E0001DC
:1005C000D8DEEAD00501050E226E040E656F900E8E
:1005D000646F010E636F63510F08D8A0DDD063C54F
:1005E0006BF500018EDE0501666B036A6351000145
:1005F0007CDDFF0867E0040E0501666FD890633567
:10060000036A000182DD0900F5CF03F00501676F81
:1006100003C068F56D6B63C56CF56F6B080E6E6F8C
:1006200000015EDE01C06AF5010E05010124016EC4
:10063000000E0220036E01C0E9FF040E0324EA6EDF
:1006400067C5EFFF6D6B63C56CF56F6B080E6E6F62
:10065000000146DE01C06AF5020E05010124016EAB
:10066000000E0220036E01C0E9FF040E0324EA6EAF
:1006700065C5ECFFED5264C5EFFFD8906335036AA2
:10068000000143DD0900F5CF03F0050164270350A5
:100690006523880E696F68A101D0698168A301D0C4
:1006A00069836D6B63C56CF56F6B080E6E6F00012F
:1006B00017DE050101C0E9FF040E0224EA6E69C5D8
:1006C000EFFF0001036A0501635100010EDDFF0821
:1006D00048E0050166836D6B63C56CF56F6B080EB2
:1006E0006E6F0001FDDD02C06BF501C06AF5040EFE
:1006F00005016A27000E6B23020E6A25016E000EAB
:100700006B21036E01C0E9FF040E0324EA6E65C588
:10071000ECFFED5264C5EFFFD8906335036A00012A
:10072000F4DC0900F5CF03F00501642703506523CD
:100730006D6B63C56CF56F6B080E6E6F0001D0DDDD
:1007400002C06BF501C06AF5040E05016A27000EB0
:100750006B236AC5E9FF040E6B25EA6E400EEF6E4F
:10076000000105016651060802E10E0E666F036A7C
:1007700063510001BADC010803E00501668900014C
:10078000036A05016351700FE96E0F0E0320EA6ED4
:1007900066C5EFFF632B1FD7000123EF04F00401B0
:1007A0001151000A00010DE0010A15E0020A21E0E2
:1007B000060A2CE0030A33E00E0A33E0010A39E0AE
:1007C00049D01CC050F40401516B020E0501656F45
:1007D000000113DE40D00401122D08D0010E1C16BA
:1007E0000501656B000109DE03D00401000108DE8C
:1007F00032D00401122D07D01C820501656B000167
:10080000FCDD03D004010001FBDD25D0020E1A6ED1
:1008100012C424F00501656B0001EFDD1CD051DE30
:100820001AD01BC050F4010E0501656F0001E5DD13
:1008300012D00401125101080BE312C41BF012C4C0
:1008400062F50001B7D60501656B0001D6DD040134
:10085000000101D0D5DD73EF05F01BC062F5040186
:100860001151000A000107E00A0A0EE0010A2EE019
:100870000D0A42E043D00401506B516B020E05019A
:10088000656F0001BADD3BD0050162531CE0010E2B
:10089000625D036A000198DC016E0401145DD8A05A
:1008A00002D0050110D0036A1451290FE96E000E21
:1008B0000320EA6EEFCF50F4010E0501656F0001D1
:1008C0009CDD03D0050100019BDD19D005016253B9
:1008D00010E0036A04011451290FE96E000E032091
:1008E000EA6E12C4EFFF0501656B000186DD03D0DF
:1008F0000501000185DD03D0E4DD01D081DD73EF6A
:1009000005F00501639162BF6381629F63A119D005
:100910006D6B62C56CF56F6B080E6E6F0001E0DCED
:1009200002C065F501C064F5040E05016427000EE0
:10093000652364C5E9FF040E6525EA6E880EEF6E37
:100940000FD06D6B62C56CF56F6B080E6E6F00019A
:10095000C7DC050101C0E9FF040E0224EA6EEF6A5C
:10096000000133EF05F00501639162BF6381629F6F
:1009700063A119D06D6B62C56CF56F6B080E6E6F5D
:100980000001AEDC02C065F501C064F5040E05018E
:100990006427000E652364C5E9FF040E6525EA6E31
:1009A000840EEF6E10D06D6B62C56CF56F6B080E28
:1009B0006E6F000195DC050101C0E9FF040E022401
:1009C000EA6E840EEF6E00013BEF05F005016391C6
:1009D00062BF6381629F63A119D06D6B62C56CF5C4
:1009E0006F6B080E6E6F00017BDC02C066F501C004
:1009F00065F5040E05016527000E662365C5E9FF50
:100A0000040E6625EA6EEFCF64F510D06D6B62C5FB
:100A10006CF56F6B080E6E6F000162DC050101C0A2
:100A2000E9FF040E0224EA6EEFCF64F564AF02D052
:100A300064B502D0000E01D0010E016E000147EF37
:100A400005F014C46CF525DC01522EE004011151AF
:100A5000010A000105E0020A0BE0030A11E023D0BD
:100A600014C462F54ED70501656B0001C6DC1CD0CD
:100A700014C462F578D70501656B0001BEDC14D0A3
:100A80000401506B516B14C462F500019FD70152F1
:100A900004E0010E0401506F0001020E0501656FB4
:100AA0000001ABDC01D0ACDC73EF05F004011151A7
:100AB0000001A6DC73EF05F01A6A040110517F0BE8
:100AC000000A000107E0010A07E0030A07E0230A21
:100AD00007E008D064D607D0C0D605D0B2D703D07F
:100AE000E5D701D08DDCF9EF06F005016D6B62C52D
:100AF0006CF56F6B080E6E6F000170EC01F0050174
:100B000001C0E9FF040E0224EA6EEFCF64F56351E1
:100B1000020806E164AD02D0636B02D0010E636F80
:100B2000635103081CE1840E646F6D6B62C56CF544
:100B30006F6B080E6E6F000170EC01F002C068F57B
:100B400001C067F5040E05016727000E682367C51D
:100B5000E9FF040E6825EA6E840EEF6E07D0632D60
:100B600003D0C80E646F02D0880E646FD8906235CF
:100B7000036A000185EC00F00900F5CF03F00501E0
:100B8000656F03C066F56D6B62C56CF56F6B080E23
:100B90006E6F000170EC01F001C067F5010E0501F8
:100BA0000124016E000E0220036E01C0E9FF040E55
:100BB0000324EA6E65C5EFFF66A101D0648166A3D8
:100BC00001D064836D6B62C56CF56F6B080E6E6F40
:100BD000000170EC01F0050101C0E9FF040E0224E0
:100BE000EA6E64C5EFFF00011200036A0501675158
:100BF000700FE96E0F0E0320EA6EEF521BE06D6B73
:100C000067C56CF56F6B080E6E6F000170EC01F03C
:100C100002C069F501C068F5040E05016827000EE1
:100C2000692368C5E9FF040E6925EA6EEFCF6AF50E
:100C30006AAF02D0000E01D0010E016E0001120059
:100C400062C567F5D2DF0152D8B487D005016D6B5C
:100C500062C56CF56F6B080E6E6F000170EC01F0F1
:100C600002C068F501C067F5040E05016727000E94
:100C70006823010E6725016E000E6821036E01C016
:100C8000E9FF040E0324EA6E63C5EFFF6551020815
:100C900020E16D6B62C56CF56F6B080E6E6F000125
:100CA00070EC01F002C068F501C067F5040E0501A3
:100CB0006727000E682367C5E9FF040E6825EA6E02
:100CC000EFCF66F566AD02D0656B02D0010E656FA1
:100CD0001AD06551040817E16D6B62C56CF56F6B36
:100CE000080E6E6F000170EC01F0050101C0E9FF14
:100CF000040E0224EA6EEFCF66F566AD03D0010E56
:100D0000656F01D0656B652D03D0C80E666F02D08C
:100D1000880E666F64A101D0668164A301D06683EA
:100D20006D6B62C56CF56F6B080E6E6F000170EC39
:100D300001F002C068F501C067F5040E05016727E0
:100D4000000E682367C5E9FF040E6825EA6E66C5D4
:100D5000EFFF010E016E04D00001000E016E0501CF
:100D6000000112000501625300E10001120063C599
:100D70006EFF0501635303E0040E226E02D0020EE3
:100D8000226E0001C9EF06F01B6A1A6A24C063F5DF
:100D9000EED7DAEF06F0050162530DE11A2C05D00B
:100DA000000102EC02F006D005011A50020803E12E
:100DB0000001EAD705010001120021300501606F32
:100DC000603360331F0E601721524EE10401005161
:100DD0003C0B0501616F430E0401001705016151D1
:100DE000340825E104010451800B01E0046B00018B
:100DF00063D66D98233C07D00501626B030E636FC9
:100E0000000173DE12D00501626B020E636F0001F8
:100E10006CDE2350FE0809E00501626B646B23C0A1
:100E200063F5040E656F00010BDF1CD005016151F5
:100E3000040819E1626B000195DF0501626B020E87
:100E4000636F000152DE2350FE080CE0233C01D00A
:100E500009D00501626B646B23C063F5010E656FF9
:100E60000001EEDE050122D02150040812E12368C2
:100E7000626B000190DF233C01D009D00501626B59
:100E8000646B23C063F5020E656F0001D9DE0DD0DF
:100E9000050121B406D060C562F5000163DF05D00D
:100EA000050160C562F5000176DF050100018CEFE8
:100EB00007F0A19A2252D8B439D06852D8B436D0AB
:100EC00068A403D069B421EF01F06DB22FD068AAF5
:100ED00003D069BA3EEF01F068A203D069B245EFD2
:100EE00001F068A003D069B0E0EF01F068A803D07A
:100EF00069B8F5EF01F068AC03D069BCFAEF01F016
:100F000005015F6B68A60AD069A608D06CCF21F0F6
:100F10000001DEEC01F051D703D0050106D000013D
:100F200005015F515F2B0308EDE200014EEF00F079
:100F300062C5DDF161C5DCF160C5DBF15FC5DAF1E9
:100F4000120001012C6B2CC12AF0000112000201D9
:100F5000C06BBF6B0101B1910501626B616BC4C2D3
:100F600060F5C3C25FF50001E3DF8C800101D56B42
:100F7000D46B0001E6DF0101B19F0201BE812B6A43
:100F8000000112000201C06BBF6B0101B1910201AF
:100F9000BE910101B18D8C90000112000201BEB121
:100FA00004D00001D4DF03D002010001EBDF120006
:100FB000DB0ED76E610ED66E0201C32BD8B4C42BE4
:100FC000752D01D001D0C52BBF5302E1C05304E001
:100FD000BF51D8B4C007BF0781AE09D0BEA501D0AC
:100FE00005D0BE73BE850001D9DF020103D0BEA5C6
:100FF00001D0BE95DD2BF29400014EEF00F005010B
:1010000061C500F06251016E04E0D8900032012EFB
:10101000FCD70050010B016E000112000501655163
:10102000070B006E6531016E013201321F0E011691
:1010300001506725E96E000E6821EA6E016A012AF7
:10104000002A01D00136002EFDD7665303E001507F
:10105000EF1203D0011E0150EF160001120063C50C
:1010600065F50501666B0F0E686F890E676F0001ED
:10107000D5DF120063C565F5010E0501666F0F0E21
:10108000686F890E676F0001C9DF12000201B95154
:10109000BC5DD8B083D0036ABC51B50FE96E020EB7
:1010A0000320EA6EEFCF5FF50501606B6051030826
:1010B00056E35FC561F560C562F50001A0DF01522E
:1010C0004BE0A2C261F560C562F599DF012C44D006
:1010D0009FC261F560C562F592DF015229E1D890A7
:1010E00005016035036A650FE96E020E0320EA6EA2
:1010F000ECCF62F5ED52EFCF61F562C564F561C5E5
:1011000063F50001ACDFD89005016035036A6D0F0F
:10111000E96E020E0320EA6EECCF62F5ED52EFCFDE
:1011200061F562C564F561C563F5000198DF14D00F
:10113000D89005016035036A6D0FE96E020E032039
:10114000EA6EECCF62F5ED52EFCF61F562C564F562
:1011500061C563F5000183DF0501602BA7D702019C
:10116000BC2BB951BC5D12E2D890BC35036AAD0FFF
:10117000E96E020E0320EA6EECCF62F5ED52EFCF7E
:1011800061F562C5CFFF61C5CEFF07D0BBC2CFFFFF
:10119000BAC2CEFF0101B18B020108D10101B19B9E
:1011A0000501606B60510308D8A0F1D0A2C261F5BF
:1011B00060C562F5000123DF012CBED0036A050182
:1011C0006051A30FE96E020E0320EA6EEF52D8B40D
:1011D0008BD09FC261F560C562F5000110DF01523E
:1011E00059E1A1C261F560C562F509DF015229E04C
:1011F000D89005016035036A650FE96E020E032081
:10120000EA6EECCF62F5ED52EFCF61F562C564F5A1
:1012100061C563F500012EDFD89005016035036AD2
:101220006D0FE96E020E0320EA6EECCF62F5ED520F
:10123000EFCF61F562C564F561C563F500010FDFAD
:1012400028D0D89005016035036A6D0FE96E020E53
:101250000320EA6EECCF62F5ED52EFCF61F562C587
:1012600064F561C563F5000105DFD89005016035BF
:10127000036A650FE96E020E0320EA6EECCF62F599
:10128000ED52EFCF61F562C564F561C563F500010C
:10129000E6DE28D0D89005016035036A6D0FE96E4F
:1012A000020E0320EA6EECCF62F5ED52EFCF61F54E
:1012B00062C564F561C563F50001DCDED890050107
:1012C0006035036A650FE96E020E0320EA6EECCF0B
:1012D00062F5ED52EFCF61F562C564F561C563F566
:1012E0000001C8DE28D00501D8906035036A650F7B
:1012F000E96E020E0320EA6EECCF62F5ED52EFCFFD
:1013000061F562C564F561C563F50001A8DED8909A
:1013100005016035036A6D0FE96E020E0320EA6E67
:10132000ECCF62F5ED52EFCF61F562C564F561C5B2
:1013300063F5000194DE28D0D89005016035036A7A
:10134000650FE96E020E0320EA6EECCF62F5ED52F6
:10135000EFCF61F562C564F561C563F500017FDE1D
:10136000D89005016035036A6D0FE96E020E032007
:10137000EA6EECCF62F5ED52EFCF61F562C564F530
:1013800061C563F500016BDE0501602B0BD702011F
:10139000B95306E0BC6BAEC2CFFFADC2CEFF06D0E4
:1013A000690ECF6ECE680101B18B02019E900001E3
:1013B0004EEF00F00101B1870201DE2BC15302E1C3
:1013C000C25304E0C151D8B4C207C107EF530DE0C6
:1013D000F051F02B000A03E1320EBE6E06D0F05140
:1013E000140803E1BE6AF06BEF6B9E9200014EEFB2
:1013F00000F00201BEBF13D0E65302E1E75307E05D
:10140000E7C2E5F2E6C2E4F2E76BE66BEE81ED518E
:10141000ED2B320803E2EC6BEB6BED6B13D0E45178
:10142000EB5D03E1E551EC5D0DE0E451950805E16C
:10143000E55303E10001B2DD0201E5C2ECF2E4C2D2
:10144000EBF2ED6BBE9FA19200014EEF00F00201A6
:10145000BE8FBEAD09D0BA6A050EBA6EBE9DBCCFB6
:10146000E9F2BBCFE8F258D0BA6A040EBA6EBE8D6C
:10147000E951BC5C0FE303E1BB50E85D0BE2E851CE
:10148000BB5C05015F6F0201E951BC580501606F4B
:1014900011D00201FF0ED880E8550501616FFF0EE3
:1014A0000201E9550501626FBB5061255F6FBC50B9
:1014B0006221606F60510B080AE303E15F51B708D6
:1014C00006E30201E76BE66BEA6B26D0050160518B
:1014D000130808E303E15F51870804E30201EA2BE4
:1014E0001BD005016051230813E303E15F51270876
:1014F0000FE3010E006E0201EA51016E04E0D89084
:101500000036012EFCD70050E613EA2B05D005016A
:101510000201E76BE66BEA6BA19000014EEF00F071
:1015200002019C6B010E756FBE912A6A01012C6B42
:101530002B6AEF6F460EF06F6F0EF26FF2CF40F333
:10154000F29EF86A790EF76EF00EF66E0900F5500D
:101550000800F5CF03F0F86A030140BFF28E0101E5
:10156000D26F03C0D3F10001CAEF23F08A9C8C9A9A
:101570000301426B436B4251030850E3D89042355C
:10158000036A5D0FE96E020E0320EA6EECCF45F3AD
:10159000ED52EFCF44F3196AF2BE198EF29E45C3A5
:1015A00064F544C363F500015ADD19BEF28ED8908C
:1015B00003014235036A650FE96E020E0320EA6EED
:1015C000ECCF45F3ED52EFCF44F3196AF2BE198E1A
:1015D000F29E45C364F544C363F5000140DD19BEC6
:1015E000F28ED89003014235036A6D0FE96E020E48
:1015F0000320EA6EECCF45F3ED52EFCF44F3196AC6
:10160000F2BE198EF29E45C364F544C363F5000132
:1016100026DD19BEF28E0301422BADD70001120068
:1016200093829380A2EF0BF0030EEA6E7C0EE96EBC
:10163000EF500EE00F0E016E006A002EFED7012E55
:10164000FBD78F0E006E002EFED70000EF2EF2D7D4
:101650001200320EBE6E8C8003017C6F0001E4DF4D
:10166000BE6A320E03017C6F0001DEDF8C90320E09
:10167000BE6E03017C6F0001D7DFBE6A8C80640EF2
:1016800003017C6F0001D0DF8C90A3EF0BF06D9213
:101690006D6A696A080E6F6E945030090301946E8A
:1016A000226A196AF2BE198EF29E0001C8EC01F09E
:1016B00019BEF28E5DEF0BF0EAD7A4EF0BF001013B
:1016C000F46B2F0E926E830E936E320E946E000E9C
:1016D000956E070E966EC150C00B0709C16EC050C3
:1016E000C00B0709C06EC08EC28002019E6B000E47
:1016F000016EC250C30B0110C26E000137DF860EAF
:10170000D56EDB0ED76E610ED66EF28AA50ECD6E4B
:101710009D80CF6ACE6A380E0609CA6EFA0ECB6E6D
:101720009D829D0EB16EB36AB26AA082BA6A040E3F
:10173000BA6EA0808B940C0EBD6EB76AB66AC00EEE
:10174000F2126ED786D7B8D7CCEF23F01B50016EBC
:101750007FEF14F0036A0301E451700FE96E0F0E7E
:101760000320EA6EEF521EE0196AF2BE198EF29E55
:1017700005016D6BE4C36CF56F6B080E6E6F0001B5
:1017800070EC01F019BEF28E02C0E6F301C0E5F381
:10179000030101C0E9FF040E0224EA6EEFCFE7F374
:1017A000E7AF02D0000E01D0010E016E000188EFFC
:1017B00014F0196AF2BE198EF29E05016D6BE9C331
:1017C0006CF56F6B080E6E6F000170EC01F019BEC6
:1017D000F28E01C0F3F3020E03010124016E000E2C
:1017E0000220036E01C0E9FF040E0324EA6EECCF71
:1017F000EFF3ED52EFCFEEF3196AF2BE198EF29EBF
:1018000005016D6BE9C36CF56F6B080E6E6F00011F
:1018100070EC01F019BEF28E01C0F3F3010E03016A
:101820000124016E000E0220036E01C0E9FF040EC8
:101830000324EA6EF26BEFCFF1F3196AF2BE198E50
:10184000F29E05016D6BE9C36CF56F6B080E6E6F50
:10185000000170EC01F019BEF28E030101C0E9FF36
:10186000040E0224EA6EEFCFF0F3F0A101D0F28172
:10187000F0A301D0F283F251ED5D08E303E1EC51F6
:10188000F15D04E2F2C3EDF3F1C3ECF3EBC3EAFF65
:10189000EAC3E9FFEFC3E2FFEEC3E1FFEDC302F0ED
:1018A000ECC301F0015202E0022A02D0025206E02B
:1018B000E6CFEEFF012EFCD7022EFAD7ECC301F0E3
:1018C000EDC302F0000170EF0CF0E4C3E9F3E6C3EE
:1018D000EBF3E5C3EAF3E8C3EDF3E7C3ECF369D751
:1018E00002C0E8F301C0E7F3196AF2BE198EF29E56
:1018F000E4C362F5020E0501636F000175EC05F0AB
:1019000019BEF28E0301E7C301F0E8C302F0000143
:1019100098EF14F0ECC303F00301EBC3E9FFECC351
:10192000EAFF010E006EED51016E04E0D890003622
:10193000012EFCD70050FF0AEF14EF6E00011200D9
:10194000E9C303F00301E8C3E9FFE9C3EAFF010EBD
:10195000006EEA51016E04E0D8900036012EFCD7EB
:101960000050EF10EF6E000112000301E76BE7512A
:10197000030825E3F4C100F00301E751016E04E020
:10198000D8900032012EFCD70050010B16E0E65330
:10199000D8A40AD0020EEC6F9F0EEB6FE7C3EDF3F5
:1019A0000001B8DF09D00301020EE96F9F0EE86F56
:1019B000E7C3EAF30001C4DF0301E72BD8D7000136
:1019C0001200D8900301EC37D890EC35036A5D0F14
:1019D000E96E020E0320EA6EECCFEEF3ED52EFCF8C
:1019E000EDF3196AF2BE198EF29EEEC364F5EDC3F3
:1019F00063F500013AEC08F019BEF28E010E030106
:101A0000EC25006ED89000360050036A5D0FE96E39
:101A1000020E0320EA6EECCFEEF3ED52EFCFEDF3C2
:101A2000196AF2BE198EF29EEEC364F5EDC363F53A
:101A300000013AEC08F019BEF28E0301EC5302E10A
:101A40008A8C01D08C8A00011200D8900301E63103
:101A5000E76FEC6F0001B5DF020E0301E96FA20E24
:101A6000E86FE6C3EAF300016BDF50EF0EF0D890A9
:101A70000301E635036A650FE96E020E0320EA6E84
:101A8000ECCFEAF3ED52EFCFE9F3D890E635036AF5
:101A90006D0FE96E020E0320EA6EECCFE8F3ED5213
:101AA000EFCFE7F3196AF2BE198EF29EE8C364F530
:101AB000E7C363F500013AEC08F019BEF28E196A2B
:101AC000F2BE198EF29EEAC364F5E9C363F53AECFF
:101AD00008F019BEF28E020E0301EC6FA20EEB6F3E
:101AE000E6C3EDF3000116DFD8900301E631EB6F9A
:101AF000EC6F000166DF55EF0EF0196AF2BE198E29
:101B0000F29EA1C261F5E6C362F5FFEC07F019BED3
:101B1000F28E01520AE0020E0301EC6FA10EEB6F90
:101B2000E6C3EDF30001F6DE09D0020E0301E96F12
:101B3000A10EE86FE6C3EAF3000102DF5AEF0EF0F0
:101B4000020E0301E96FA10EE86FE6C3EAF300019C
:101B5000F7DE5FEF0EF0020E0301EC6FA10EEB6FEC
:101B6000E6C3EDF30001D6DE64EF0EF0D89003017A
:101B7000E837D890E835036A5D0FE96E020E03205E
:101B8000EA6EECCFEAF3ED52EFCFE9F3196AF2BE59
:101B9000198EF29EEAC364F5E9C363F500012FECE8
:101BA00008F019BEF28E010E0301E825006ED890F0
:101BB00000360050036A5D0FE96E020E0320EA6EE4
:101BC000ECCFEAF3ED52EFCFE9F3196AF2BE198ECA
:101BD000F29EEAC364F5E9C363F500012FEC08F057
:101BE00019BEF28E0301E85302E18A9C01D08C9A5F
:101BF00000012CEF0EF0020E0301EC6FA20EEB6F52
:101C0000E6C3EDF3000186DE0301E651020B016E2F
:101C10000201A2C200F0015204E0D8900032012E6D
:101C2000FCD70050010B19E10301E651020B010F33
:101C3000016E0201A2C200F0015204E0D89000320D
:101C4000012EFCD70050010B08E1D8900301E631CA
:101C5000E76FE86F00018AD70201000169EF0EF01B
:101C60000301E56BE551030839E3F4C100F003011A
:101C7000E551016E04E0D8900032012EFCD70050EF
:101C8000010B2AE0E66B000170DE0301E451FA0F5C
:101C900023E2060F000170EF0EF0E5C3E6F3D5D6A0
:101CA00003011AD0E5C3E6F3E2D6030115D0E5C37C
:101CB000E6F323D7030110D0E5C3E6F341D70301D0
:101CC0000BD0E5C3E6F347D7030106D0E5C3E6F33F
:101CD00092D7030101D00301E52BC4D70001120004
:101CE000E824F76AF736FB0FF66E1C0EF7220A009F
:101CF000F550FA6E0800F550F96E9A1CA41CAE1C43
:101D0000B81CC21CCC1C8E0E006EE7C301F0E6C3EB
:101D100002F0036A015209E102C001F0026A080EF2
:101D2000005E015202E1006A08D0D89001BE04D0E2
:101D3000023601360006F9D7019E25EF10F00301A7
:101D4000EA51D8B4A5D0F66FEE51D8B4A1D0F65F61
:101D500005E37F0EF627D8B09BD006D0810EF65F44
:101D6000D8A096D0D8B494D0F6C300F0016A026A25
:101D7000036AF56BEBC3F4F3F48FECC3F3F3EDC339
:101D8000F2F3190EF66FF151F25F0DE2010EF35FFF
:101D90000AE2F45F08E2F55F06E2F52BF42BF32B81
:101DA000F151F22728D0F051F35F12E2010EF45FF7
:101DB0000FE2F55F0DE2F52BF42BF051F327F15113
:101DC000F22719E3F32B17E1F42B15E1F52B13D0D0
:101DD000EF518009F45F0EE2010EF55F0BE2F52B87
:101DE000EF518009F427F051F327E9E3F42BE7E101
:101DF000F52BE5D70380F62F01D00BD0D890F23722
:101E0000F337F437F537D890033602360136F73713
:101E1000BAD7F7A106D0D890013202320332F73395
:101E200002D0000635E0F7BF1ED0D890F237F33766
:101E3000F437F537F151F25F07E2010EF35F04E288
:101E4000F45F02E2F55F1AE3F051F35F05E2010E81
:101E5000F45F02E2F55F12E3EF518009F45F03E201
:101E6000010EF55F0BE3032A09E1022A07E1012ACB
:101E700005E1002A0DE0013202320332EBC3F6F332
:101E8000EF51F61BF6AF02D0018E06D0019E04D0B2
:101E9000006A016A026A036A00013EEF10F0030162
:101EA000EA51D8B471D0006EEE51D8B46DD000268E
:101EB00004E3810E002668E204D07F0E005E64E336
:101EC00063E0EBC3F2F3EF51F21BEB8FEF8FED51B9
:101ED000F103F4CFF4F3EC51F003F4CF03F0F3CFBC
:101EE000F3F3F103F350F427F450F323000E03222D
:101EF000ED51F003F350F427F450F323000E026A7F
:101F000003220222EB51F103F350F327F450032292
:101F1000000E0222EB51F003F3500326F45002228C
:101F2000000E016A0122ED51EF03F350F327F45044
:101F30000322000E02220122EC51EF03F35003268C
:101F4000F4500222000E0122EB51EF03F35002265F
:101F5000F4500122002A01BE05D0F33703360236C1
:101F600001360006000EF3AF0AD0032A0222012236
:101F7000015005E1025003E1035001E1002AF2BFE4
:101F8000018EF2AF019E04D0006A016A026A036A00
:101F9000000157EF10F08E0E006E0301E651005E57
:101FA000E7C302F0E8C301F0028E005209E0D890C6
:101FB000025202E1015204E002320132002EF7D750
:101FC000E7AF05D0011E021E012AD8B4022A000183
:101FD00060EF10F00301E76BE75103082EE3F4C153
:101FE00000F00301E751016E04E0D8900032012EA9
:101FF000FCD70050010B1FE0036AE751A30FE96E05
:10200000020E0320EA6EE6C3EFFF036AE751A80F52
:10201000E96E020E0320EA6EEF50E65D0CE001016E
:10202000B189036A0301E751A80FE96E020E03208C
:10203000EA6EE6C3EFFFE72BCFD7000112000301E2
:10204000E76BE5C3E6F300015ED603C0E9F302C027
:10205000E8F301C0E7F300C0E6F303C0EDF302C00C
:10206000ECF301C0EBF300C0EAF30301F16BF06B9A
:10207000480EEF6F850EEE6F000161D603C0E9F3E5
:1020800002C0E8F301C0E7F300C0E6F303C0EDF3DC
:1020900002C0ECF301C0EBF300C0EAF30301F16B03
:1020A000F06B7F0EEF6F860EEE6F0001F8D603C067
:1020B000E9F302C0E8F301C0E7F300C0E6F36BD731
:1020C00001C0E5F3E5C3E6F385DF1200E4C3F4F1F4
:1020D0001200F4C100F00301E451016E04E0D89055
:1020E0000032012EFCD700A00FD0010E006EE4518B
:1020F000016E04E0D8900036012EFCD70050FF0A94
:102100000101F4170DD00301010E006EE451016EC0
:1021100004E0D8900036012EFCD700500101F413E2
:10212000000112EF16F0140E0201EF6F0001120011
:10213000EDC333F3ECC332F3C00E03013217325157
:10214000EC5D316F346B0001120055C501F054C5D0
:1021500000F00066012A0900F5CFEEFF002EFBD744
:10216000012EF9D7F86A00EF11F0F250036EF29EDB
:10217000A68EA6840F01550EA76EAA0EA76EA68284
:1021800000000350F21200011200D08CA69CF65001
:102190001F0B006EE00EF6160A0058C501F000662F
:1021A00008D0F650010F3F0B04E1A6880900DDDFDF
:1021B0000A00006607D0EECFF5FF015204E00F00E1
:1021C000010603D000060B000C001F0EF6141F0AB8
:1021D000E6E1CBDF0166E3D7F86A59EF11F00301BE
:1021E000F381F86AEBC3F7FFEAC3F6FF050EEA6E68
:1021F000100EE96E0501556B400E546F0001A5D716
:10220000400ED8800301EC55ED5D06E005E3400E7D
:10221000D880EC55F26F02D0EDC3F2F3ECC3F0F3CB
:10222000F16BF251F15D1EE2036AF051100F016E85
:10223000050E032201C0F4F303C0F5F3F151EE25BE
:10224000016E000EEF2101C0E9FFEA6EEFCFF6F359
:10225000F5C3EAFFF4C3E9FFF6C3EFFFF051F02B3B
:10226000F12BDFD7F06BF051010828E3F29CF29ECE
:10227000F2BEFDD7F051200DF350EA25F46F000EA9
:10228000EB21F56FF051200DF350100FF66F050E96
:10229000F76FD8B0F72BF86AF5C3F7FFF4C3F6FF72
:1022A000F7C3EAFFF6C3E9FF200E0501586F0001EE
:1022B0006CD7C00EF2120301F02BD5D7ED51EC25EF
:1022C000400810E2400EEA27000EEB23400ED880B3
:1022D000EC55ED5F400ED880EC55EE27000EEF2355
:1022E000EC6B01D0F3918C70F3B17BD700018AEFD6
:1022F00011F00301345320E033C3EBF332C3EAF3AC
:1023000031C3ECF334C3EDF3020EEF6FF10EEE6F59
:10231000000165D7030131513225EA6F000E3321E8
:10232000EB6F3451EA27000EEB23EBC3EDF3EAC366
:10233000ECF30001FDDE0301000112000301345142
:10234000342B036AF10FE96E020E0320EA6EE8C334
:10235000EFFF34513F0803E20001CBDF030100012E
:102360001200E7C3E9F3E6C3E8F3E8DFC2DF1200D7
:102370000301E4530EE0790EED6FF20EEC6F0001F5
:10238000D7DE0301E76B010EE66F0001EADF0CD038
:102390000301790EED6FF20EEC6F0001C9DE03014F
:1023A000E76BE66B0001DDDF12EF16F0C69E9E962E
:1023B000EDC3C9FF020EC6BE05D09EA6FED7000E15
:1023C000C5BC010E016E1200149A149C149E148A4E
:1023D0001200010E0301ED5F0DE3030EEA6EED0E38
:1023E000E96EEF5007E0020E006E002EFED700D01F
:1023F000EF2EF9D700011200C69CC586C5B6FED7E0
:1024000000B0C59A00A0C58AC588C5B8FED7C9CF97
:1024100001F01200C580C5B0FED7E8C3ECF3E8C3F5
:10242000EDF30001C3DF015204E0CEDF000E016EC8
:1024300027D0E9C3EDF3BADFC582C5B2FED70301E9
:10244000E8510109EC6FED6F0001B0DF020E0301EE
:10245000EC6FFA0EED6F0001BCDF0301EC2FF9D732
:10246000EBC303F0EAC3E9FFEBC3EAFF006A000134
:10247000C3DF01C0EFFFC584C5B4FED7010E016EF6
:102480001200C580C5B0FED7E8C3EBF3E8C3EDF397
:1024900000018CDF015204E097DF000E016E0BD0CB
:1024A000E9C3EDF383DFEAC3EDF380DFC584C5B490
:1024B000FED7010E016E1200036A0301E4C3E9FFB7
:1024C00003C0EAFFEFCFE5F3D00EE86FE96BEB6BEB
:1024D000E5C3EAF300019EDF0301E49F130E006EE3
:1024E000002EFED700D0D00EE86FE96BE4C3EAF30C
:1024F0000001C7DF036A0301E4C3E9FF03C0EAFF89
:10250000EFCFE5F3D00EE86F020EE96FEB6BE5C39A
:10251000EAF300017FDF0301E49D130E006E002E3D
:10252000FED700D0D00EE86F020EE96FE4C3EAF3E5
:102530000001A7DFD00E0301E86F070EE96F100E50
:10254000EA6F00019EDF1200E7C3E8F30301E96BC5
:10255000E851090805E20A0EE85F100EE92703D0EA
:10256000E851E92701D0F4D7E9C301F00001BCEF3D
:1025700012F0E6C3E7F3E8D701C0E7F3D00E03019A
:10258000E86FE5C3E9F301C0EAF300017ADF7CEF0D
:1025900015F0E8C3E9F3D8900301E933780EE917A1
:1025A000E931006E00323F0E00160050E925EA6F57
:1025B000E8510F0BEA25016E0001F3EF12F0D00E87
:1025C0000301E86FE6C3E9F3030EEB6FE70EEA6F72
:1025D000000120DF012C01D003D0640E016E04D075
:1025E000E7C3E8F3D6D7015012000301E76B0201FD
:1025F000DF51B40802E0000E01D0010E0301E86FC4
:102600000201DF51B60802E0000E01D0010E030105
:10261000E81102E0050EE46FC580C5B0FED7DFC249
:10262000EDF30001C3DE015001E064D0E4C3EDF33B
:10263000BDDE0301E451050825E1E76B036AE751BC
:10264000006EE8BE0306E525E96EE6510320EA6E5A
:10265000EF5213E0036AE751006EE8BE0306E5257A
:10266000E96EE6510320EA6EEFCFE8F3E8C3EDF33D
:1026700000019CDE0301E72BE1D7ED6B000196DE44
:1026800036D00301E76BE7BF03D0E75103082EE321
:10269000036AE751006EE8BE0306E525E96EE651E0
:1026A0000320EA6EEF520FE1E751E72B006EE8BE20
:1026B00003D00050030806E3200EED6F000176DE24
:1026C0000301F2D711D0036AE751006EE8BE03069A
:1026D000E525E96EE6510320EA6EEFCFE8F3E8C3A3
:1026E000EDF3000163DE0301E72BCDD70001C584C4
:1026F000C5B4FED71200C580C5B0FED7DFC2EDF36A
:1027000055DE060E0301ED6F000150DEC584C5B431
:10271000FED71200196AF2BE198EF29EC8EC01F0C3
:1027200019BEF28E6D926D6A6D8C00D000D00000E3
:102730006D9C140E6F6E696A6D86010E226EA4EF99
:1027400013F06DB601D0E6D7222C0BD06DBA09D0AC
:10275000686A696AA08AC00EF212110E696E020ED2
:10276000226E1200196AF2BE198EF29EEBC367F553
:10277000F5EC05F019BEF28E015254E0196AF2BE72
:10278000198EF29E05016D6BEBC36CF56F6B080E35
:102790006E6F000170EC01F019BEF28E02C0F4F30E
:1027A00001C0F3F3040E0301F327000EF423020E1D
:1027B000F325016E000EF421036E01C0E9FF040E43
:1027C0000324EA6EECCFF2F3ED52EFCFF1F3F2C354
:1027D000EAFFF1C3E9FFEDC3E2FFECC3E1FFEFC3A2
:1027E00002F0EEC301F0015202E0022A02D00252CE
:1027F00006E0E6CFEEFF012EFCD7022EFAD7196ACB
:10280000F2BE198EF29EEBC362F5EFC364F5EEC320
:1028100063F5F0C365F5000120EC06F019BEF28EF9
:10282000015002D0000E016E120002015C515C2BBF
:10283000036A1D0FE96E020E0320EA6EEAC3EFFF82
:102840000301EA510A0805E002015C513F0816E263
:102850000301010E02011D6F5CC21EF20301EB6F4A
:10286000020EED6F1D0EEC6FEF6B3F0EEE6F020E62
:10287000F06F000177DF020E02015C6F00011200B1
:102880000301E7C303F0E651D8B4E707E607E86FB2
:1028900003C0E9F3E85302E1E95328E0E5C303F09C
:1028A000E451E42BD8B4E52BE86F03C0E9F3D890EA
:1028B000E835026E0334036E720E0324E96FF2CF23
:1028C000EAF3F29EF86AF76E02C0F6FF0900F550CF
:1028D0000800F5CF03F0F86AEABFF28EE86F03C094
:1028E000E9F3EA6F0001A1DFCBD70301000178EF24
:1028F00016F003014181C16B0001A6EF0BF00152FC
:10290000D8B4F8D1010E0301E46F0001AAEF0BF077
:102910000152D8B4EFD1010E0301E46F030EE66F4C
:10292000820EE56FE86B3F0EE76F000165EF0CF07C
:1029300003018253D8A478D183C3C1F3C151020AE1
:1029400000013CE0010A49E0070A57E0020A5CE0A6
:102950000F0A63E00E0AD8B47AD00F0AD8B47CD03C
:10296000030AD8B47ED0070AD8B47ED0010AD8B4FE
:102970007FD0070AD8B4A0D0380AD8B4A7D0010AAB
:10298000D8B4BFD00F0AD8B4DBD0010AD8B4D8D09D
:10299000030AD8B40FD1780AD8B40ED1010AD8B43A
:1029A00015D10F0AD8B41CD1010AD8B423D1030A17
:1029B000D8B42DD12E0AD8B434D134D10301852D09
:1029C00006D0E46B000130EC0EF006D00301010EDE
:1029D000E46F000130EC0EF025D10301852D07D006
:1029E000030EE46F000130EC0EF006D00301040E7C
:1029F000E46F000130EC0EF015D1020E0301E46F1C
:102A0000000130EC0EF00ED1000E03018625E46FBC
:102A1000E56F00011FEC10F005D10301E46B00012C
:102A200030EC0EF0030E0301E46F000130EC0EF009
:102A3000010E0301E66F0001B5EC0CF0000E03017E
:102A40008625E46FE66F0001EAEC0FF0EBD084C35B
:102A5000E4F366EC10F0E6D084C3E4F369EF10F021
:102A6000E1D093EC10F0DED084C3E4F381D4DAD06B
:102A70000301845305E10001C2EC07F01AD0030101
:102A8000842D0BD0196AF2BE198EF29E0001A7ECBC
:102A900007F019BEF28E0DD00301845102080AE13D
:102AA000196AF2BE198EF29E0001CEEC07F019BE33
:102AB000F28E03010001B6D003018551010B01081C
:102AC00002E18C8001D08C900001ACD0F5DC0301D8
:102AD000426B4251060813E3020E4225036A820F3D
:102AE000E96E030E0320EA6EEFCFE4F342C3E5F391
:102AF000E4C3E6F300013DD50301422BEAD7000110
:102B000091D00301426B4251060818E3240E42257E
:102B1000036ADE0F016E010E032201C0E4F303C05D
:102B2000E5F342C3E6F300014ADDE5C3EAFFE4C38F
:102B3000E9FF01C0EFFF0301422BE5D7000172D08E
:102B40000301426B036A4251C30F016E030E03225D
:102B500003C0E5F3020E4225036A820FE96E030EFD
:102B60000320EA6EEFCFE6F3E5C3EAFF01C0E9FF19
:102B7000E6C3EFFF4251422B020F036A820FE96E58
:102B8000030E0320EA6EEF52DDE1C1513C0809E17A
:102B9000030EE46FE66FC30EE56F000126DD09D07A
:102BA0000301050EE46F030EE66FC30EE56F00012F
:102BB0001CDD38D0A0DD36D0B80E0301E86F010E61
:102BC000E96F060EEA6F00015CDC2CD0B80E030141
:102BD000E86F010EE96F090EEA6F000152DC22D0A6
:102BE000B80E0301E86F010EE96F120EEA6F0001E3
:102BF00048DC18D0300E03018425E46FB80EE86F6E
:102C0000030EE96FE4C3EAF300013BDC0BD0B80E1E
:102C10000301E86F010EE96F0C0EEA6F000131DC71
:102C200001D0FF0067D00301010E826F825363E081
:102C300083C3C1F30001C2EC07F0010E0301C15DC3
:102C4000FC0F59E2040F00017EEF16F0030184C36C
:102C5000E4F3E46B8551E4250101D46F000E030118
:102C600084210101D56F0301C12D0FD0D4C1E4F33C
:102C7000720E0101D5250301E56FED6FD4C1ECF3B0
:102C8000000198EC10F008D00301D5C1EDF3D4C1D8
:102C9000ECF3000198EC10F003012DD00301426B1E
:102CA0008451425D14E2030E4225036A820FE96EED
:102CB000030E0320EA6EEFCFE4F3E96BE4C3E8F31D
:102CC00000019EEC11F03DDD0301422BE9D700012C
:102CD00079EC11F003010FD084C3C2F3D5C1E5F341
:102CE000D4C1E4F30301E76BC2C3E6F30001C8D526
:102CF000030101D003010001F2EF23F0E824F76A99
:102D0000F736170FF66E2D0EF7220A00F550FA6E01
:102D10000800F550F96E4C2C4C2C9C2CD82C010141
:102D2000B1A736D0C282C2B2FED7C4CF41F30301ED
:102D3000C3CF40F3D89002019D35010F036ADE0F27
:102D4000E96E010E0320EA6E03014151EF6ED89047
:102D500002019D35010F010F036ADE0FE96E010EBE
:102D60000320EA6E030140C3EFFF010E02019D251F
:102D7000070B9D6F9D5301E1EE859D35006E00367A
:102D8000FC0E0016C250C30B0010C26E0101B197B9
:102D90000001F4EF23F00301406B416B446B426B85
:102DA0004251030832E3036A4251E00FE96E020E1A
:102DB0000320EA6EEFCF43F3C580C5B0FED743C30F
:102DC000EDF30001D6EC11F001C041F303014153D2
:102DD00002E0000E01D0010E416F41530CE043C3ED
:102DE00044F3010EED6F0001D6EC11F0C584C5B4BB
:102DF000FED703010AD0C584C5B4FED7270E006EE6
:102E0000002EFED700D0422BCBD744C301F00001E7
:102E10007DEF17F0D89003017835010F036ADE0FBC
:102E2000E96E010E0320EA6EEFCF7AF3796BD8904A
:102E30007835010F010F036ADE0FE96E010E0320E2
:102E4000EA6EEF507927000E7A2379C301F07AC336
:102E500002F00001120035C378F3DCDF02C041F359
:102E600001C040F303014151030804E305E140516F
:102E7000FB0802E235532DE1C580C5B0FED7DFC2A5
:102E8000EDF30001D6EC11F0040E0301ED6F00012B
:102E9000D6EC11F003014151436F3539006E003615
:102EA000E00E001600504311426F42C3EDF30001E3
:102EB000D6EC11F0030140C300F0036A40C343F3B2
:102EC00040C3EDF30001D6EC11F0C584C5B4FED7C4
:102ED0000301352B070E3517000192EF17F00201A1
:102EE000BEAB01D021D0EEA301D01ED0DD510A0827
:102EF00010E2BEA90ED000014ED701C0DFF20201E0
:102F0000DF5302E0010E01D0000EBE97E8B0BE878D
:102F1000DD6BDE51030808E2BEB702D0BEB904D0B3
:102F2000000199D70201DE6B0001F6EF23F00301E7
:102F3000406B416B426B4469456B466B0201BC6B55
:102F4000030140510F08D8B48BD0416B41510308A5
:102F50004BE3196AF2BE198EF29E40C361F541C37C
:102F600062F50001FFEC07F019BEF28E015201E09C
:102F700038D0036A03014151A30FE96E020E03200A
:102F8000EA6EEFCF43F3433D01D002D043530BE150
:102F9000030EE96F400EE86F41C3EAF30001A0ECB5
:102FA0000CF01FD003014451435D0CE243C344F3D2
:102FB000010E456F4151016E04E0D8904537012E56
:102FC000FCD70ED04451435D0BE1010E006E415120
:102FD000016E04E0D8900036012EFCD70050451356
:102FE00000010301412BB2D745514013443D01D0AC
:102FF00036D0D8904235036AAD0FE96E020E032039
:10300000EA6E4651445D4A6B496F196AF2BE198EE9
:10301000F29E4AC36DF5E8CF6CF505016F6B960E15
:103020006E6F000170EC01F019BEF28E02C003F069
:103030000150FF08006EFF0E035600C0EFFF03C0F3
:10304000ECFF036A03014251B50FE96E020E032043
:10305000EA6E45C3EFFF44C346F34469422B71D780
:1030600042C3B9F242531FE0486B46C347F3196AA3
:10307000F2BE198EF29E48C36DF546C36CF505018C
:103080006F6B960E6E6F000170EC01F019BEF28E40
:1030900002C003F00150FF0F0201BA6F690E022057
:1030A000BB6F05D00301690E0201BB6FBA69000155
:1030B00061EF18F00101B1AB06D0B1A904D0000155
:1030C00036D70101B1990001F8EF23F0A2C2F5F162
:1030D000A1C2F6F1A3C2F7F1A4C2F8F1A5C2F9F1B9
:1030E000A6C2FAF1E4C2FFF10201006B83B0002B2B
:1030F000016B81BE012B0001FAEF23F00101B1A1A8
:1031000005D0B191330E016E21D020D0D5C103F08E
:10311000D451D42BD8B4D52B03014E6F720E032497
:10312000F2CF50F3F29EF86AF76E4EC3F6FF090035
:10313000F5500800F5CF03F0F86A50BFF28E4C6FDF
:1031400003C04DF34D6B4CC301F0010100011200AF
:10315000C2EC07F093EC10F0640E03017C6F0001E9
:1031600014EC0BF093EC10F012002A5210E02A0637
:10317000D8902A34036A2C0FE96E000E0320EA6E01
:10318000EFCF01F0EE52EDCF02F003D002D02B8250
:10319000DFDF120001012C513F0812E32C512C2BD0
:1031A000006ED89000360050036A2D0FE96E010EB4
:1031B0000320EA6E4DC3ECFFED524CC3EFFF04D089
:1031C0000001C6DF2B840101000112002A507F0894
:1031D00012E32A502A2A006ED89000360050036A63
:1031E0002C0FE96E000E0320EA6E7BC3ECFFED525C
:1031F0007AC3EFFF02D0ACDF2B80120001012C5309
:1032000010E02C07D8902C35036A2D0FE96E010EC3
:103210000320EA6EEFCF01F0EE52EDCF02F005D0C1
:1032200004D02B86000194DF01010001120003018C
:10323000526B536B010E546FDA6AD96A030E576FE3
:103240004A0E566F030EEA6E4E0EE96E57C3E2FF4A
:1032500056C3E1FF54C355F3D890E550EE02F35046
:103260005223F4505323552FF7D752C3DEFF53C3D5
:1032700052F3536BD8B0532B562BD8B4572B542B37
:1032800054510508DFE100017CEF19F0016A026A80
:10329000006A036A0301505102E14F5118E0100E19
:1032A000516FD8904D374E37003603365051035C7E
:1032B00002E14F51005C07E34F51005ED8A00306C6
:1032C0005051035ED88001360236512FEAD70001F3
:1032D0001200DDC14DF3DCC14CF3DBC14BF3DAC1AD
:1032E0004AF3410E0301516FC60E506F4E0E4F6FE1
:1032F0006D0E4E6F00019BD7390E030100240101B2
:10330000DA6F300E030101200101DB6F000E0301B3
:1033100002200101DC6F000E030103200101DD6FBB
:10332000DCC100F0DDC101F0026A036ADDC14CF3CB
:10333000DCC14BF3DDC14EF3DCC14DF37F0E030165
:10334000506F4F690001A2DF00C001F003C002F01E
:1033500012EF21F003017A6B7A51030825E3F4C1DF
:1033600000F003017A51016E04E0D8900032012E82
:10337000FCD70050010B16E0036A7A51A30F016ECF
:10338000020E032203C07CF3036A7A51A30FE96E95
:10339000020E0320EA6E7951EF247CC3EAFF01C0DC
:1033A000E9FFEF6E7A2BD8D70101B1890001120035
:1033B000006A016A03017851D89079B10026003281
:1033C000013279B300260032013279B5002600328D
:1033D000013279B700260032013279B90026003275
:1033E000013279BB00260032013279BD002600325D
:1033F000013279BF002600320132000130EF1CF0AB
:10340000C580C5B0FED7DFC2EDF3D6EC11F0015098
:1034100001E01CD0020E0301ED6F0001D6EC11F0AB
:1034200003017B51036A7C6FED6F0001D6EC11F054
:1034300003017AC300F0036A7AC37CF37AC3EDF325
:103440000001D6EC11F0C584C5B4FED795EF1CF091
:103450000301786BC580C5B0FED70201DF510109B9
:103460000301796FED6F0001D6EC11F0006AFCECFE
:1034700011F001C078F30301782BC584C5B4FED7E1
:1034800078C301F00001EEEF1CF0C580C5B0FED797
:10349000DFC2EDF3D6EC11F0080E0301ED6F000171
:1034A000D6EC11F07AC3EDF3D6EC11F0C584C5B4B7
:1034B000FED756EF1DF003014B6B536B526B4A5115
:1034C0002C0A0001D8B4B8D0010AD8B4B6D0030A87
:1034D000D8B4B4D0010AD8B4B6D01F0AD8B4B8D082
:1034E000030AD8B4BAD0060AD8B4BAD0010AD8B4FC
:1034F000BAD0020AD8B4BAD00A0AD8B4BAD00D0ADF
:10350000D8B4BAD0030AD8B4B7D0090AD8B4C7D04F
:10351000060AD8B4CED0030AD8B4CBD0010AD8B4A6
:10352000CAD07F0AD8B4CCD0010AD8B4CED0030A0E
:10353000D8B4D0D0060AD8B4D2D0010AD8B4D4D0E6
:10354000030AD8B4ECD0010AD8B400D10F0AD8B419
:103550000BD17F0AD8B416D10F0AD8B413D1710A8F
:10356000D8B410D1030AD8B40DD1010AD8B40AD105
:10357000070AD8B407D1010AD8B404D1030AD8B4D1
:1035800001D1770AD8B419D1030AD8B416D1750A73
:10359000D8B413D11F0AD8B410D1010AD8B40DD1B0
:1035A000030AD8B40AD1010AD8B407D1070AD8B49B
:1035B00004D1010AD8B423D1030AD8B422D1010A14
:1035C000D8B421D10F0AD8B41ED1010AD8B41BD166
:1035D000030AD8B44BD1010AD8B452D1070AD8B4DF
:1035E00056D1010AD8B45AD1030AD8B461D13F0ADE
:1035F000D8B470D1030AD8B470D1010AD8B47FD13D
:10360000070AD8B4E7D1010AD8B4E7D1030AD8B47D
:10361000EFD1010AD8B4F6D10F0AD8B4F9D1010A12
:10362000D8B4FCD1030AD8B4FFD1010AD8B402D26D
:10363000070AD8B41AD238D239D238D2010E0101D1
:10364000F46F000133D2020E0101F46F00012ED29B
:10365000030E0101F46F000129D203014B2B00017D
:1036600003014B2B000103014B2B000103014B2BEA
:10367000000103014B2B00014BC3E4F330EC0EF0CF
:1036800003014A51320809E100016FDD02C0C0F2B6
:1036900001C0BFF20101B1810301000107D265DD64
:1036A00002C079F301C078F301C0E5F31FEC10F01C
:1036B000FDD14EDDFBD1040E0101F46F0001F6D106
:1036C000080E0101F46F0001F1D10C0E0101F46F3D
:1036D0000001ECD10F0E0101F46F0001E7D10201EE
:1036E000BE918C900001E2D140DDF2CF7AF3F29EE0
:1036F000F86A02C0F7FF01C0F6FF0900F5500800A4
:10370000F5CF03F0F86A03017ABFF28E786F03C039
:1037100079F303C07BF37A6F000158DDC7D125DD53
:1037200002C04DF301C04CF320DD02C04FF301C0D5
:103730004EF34FC3EDF34EC3ECF398EC10F04DC3D2
:10374000E7F34CC3E6F3B1EC11F0B0D10EDD02C0EB
:1037500079F301C078F30301796B79C37BF301C07E
:103760007AF3000133DDA2D100DD02C079F302C09B
:1037700078F30301796B79C37BF302C07AF300011C
:1037800025DD94D103014A51480804E3370E4A5D10
:103790004B6F04D0490E4A5D020F4B6F4BC378F359
:1037A00000010AEC17F002C079F301C078F302C0FF
:1037B0007BF301C07AF30ADD79D103014A514E0847
:1037C00004E3390E4A5D4B6F04D04F0E4A5D020F81
:1037D0004B6F4BC378F300010AEC17F002C079F38A
:1037E000D890036A03010230026E0310000ED8B4B1
:1037F000010E786F7B6B7A6F0001E8DC57D18C800B
:1038000055D18C9053D10301E46B000130EC0EF0E4
:10381000030E0301E46F000130EC0EF0010E030112
:10382000E66F0001B5EC0CF0A0DC01C04BF3030126
:103830004A51570807E14BC3E6F30001EAEC0FF0E9
:1038400014D003014A51580806E14BC379F3000133
:1038500081DD0BD0030178694BC379F30001A8D552
:1038600001C078F301C079F375DD20D17EDC02C0A0
:103870004DF301C04CF34CC3E4F366EC10F016D1E9
:103880000201BE8BC580C5B0FED700010FD1C58433
:10389000C5B4FED70201BE9B000108D166DC02C0A0
:1038A00079F301C078F301C0EDF3D6EC11F0FED04E
:1038B0005CDC02C079F301C078F301C000F0FCECDD
:1038C00011F001C078F303017B6B01C07AF30001B2
:1038D0007DDCECD05CEC12F0E9D047DC02C079F37F
:1038E00001C078F301C0E6F3DFEC12F001C078F319
:1038F00003017B6B01C07AF3000168DCD7D035DCB3
:1039000002C04DF301C04CF303014C51020819E110
:103910004D5317E1000129DC02C079F301C078F3AF
:1039200002C07BF301C07AF36BD5020E0301786FFE
:10393000960EED6F0001E9EC11F00301782FF8D736
:1039400047D04C51030802E14D5302E0000E01D074
:10395000010E786F4C51050802E14D5302E0000E54
:1039600001D0010E781134E00001B5EC18F001C06F
:1039700056F3010E03014B6F4B51565D17E34B514C
:10398000565D036A570F016E030E032201C078F3E0
:1039900003C079F30001B5EC18F079C3EAFF78C3EE
:1039A000E9FF01C0EFFF03014B2BE6D7036A565135
:1039B000570FE96E030E0320EA6EEF6A4CC3E4F37F
:1039C000030EE66F570EE56F0001F5EC12F00301F0
:1039D00000016CD07BEC13F069D03AD501C078F3CC
:1039E00003017B6B01C07AF30001E6EC18F05ED0B6
:1039F000B5EC18F002C079F301C078F301C07AF396
:103A000044D554D00201BE99B00EDF6F00014ED0F4
:103A10000201BE99B20EDF6F000148D00201BE99CB
:103A2000B40EDF6F000142D00201BE99B60EDF6F07
:103A300000013CD0B5EC18F002C079F301C078F376
:103A4000B5EC18F002C07BF301C07AF3B5EC18F0C6
:103A500002C07DF301C07CF378C3E8F37AC3E9F3D5
:103A600001C0EAF341EC12F021D0B5EC18F002C02D
:103A700079F301C078F3B5EC18F002C07BF301C014
:103A80007AF378C3E8F301C0E9F3030E0301EB6FA7
:103A9000520EEA6F00010AEC12F053C37BF352C3DB
:103AA0007AF3E6EC18F002D0A8EC18F014EF23F04B
:103AB0000301496B486B40516E0862E1020E01013F
:103AC000D4250301486F000E0101D5210301496F80
:103AD00000017EEC18F003014B6B01C04AF301C0FA
:103AE0004BF34A6B00017EEC18F0015003014A25AC
:103AF0000101D46F000E03014B210101D56F0001BC
:103B00007EEC18F00301436B01C042F3416B435359
:103B100003E14251415D10E20001B5EC18F002C032
:103B20004BF301C04AF302C04DF301C04CF3CAECA1
:103B300018F00301412BEBD74D6B2AC04CF3000169
:103B4000CAEC18F049C34DF348C34CF3CAEC18F063
:103B5000020E03014225016E000E4321036E015047
:103B600001012C5D03014A6F000E03544B6F4D6F32
:103B70004AC34CF30001CAEC18F014EF23F0030120
:103B80004051000A0001D8B499D0010AD8B4A0D09D
:103B9000030AD8B4ABD06D0AD8B4C3D06C0AD8B479
:103BA000E5D06E0AD8B4FBD0690AD8B422D1010A94
:103BB000D8B467D1030AD8B486D1010AD8B4B6D133
:103BC0000F0AD8B4B3D1010AD8B4F3D1030AD8B4D8
:103BD0002DD2010AD8B448D2070AD8B46CD2010A4F
:103BE000D8B46DD2030AD8B46CD2010AD8B481D249
:103BF0001F0AD8B499D2010AD8B49ED2030AD8B405
:103C0000A3D2010AD8B4A5D2070AD8B4BAD2010AFD
:103C1000D8B4CFD24A0AD8B4D9D23F0AD8B4F3D252
:103C2000760AD8B4FDD2010AD8B408D30F0AD8B4A2
:103C300005D3010AD8B402D3030AD8B4FFD2010ACB
:103C4000D8B4FCD2070AD8B4F9D2010AD8B4F6D253
:103C5000030AD8B4F3D2010AD8B4F0D23F0AD8B4D8
:103C6000EDD2010AD8B4EAD2030AD8B4C9EF21F0E0
:103C7000010AD8B4D9EF21F0070AD8B4F6EF21F041
:103C8000010AD8B414EF22F0030AD8B443EF22F0AB
:103C9000010AD8B474EF22F00F0AD8B4ABEF22F0C7
:103CA000010AD8B4D3EF22F0030AD8B4D7EF22F038
:103CB000010AD8B4DFEF22F010EF23F00201BE9129
:103CC0008C900101AE6BAD6BB06BAF6B15EF23F059
:103CD0007EEC18F001C04AF303017B6B01C07AF35C
:103CE0000001E6EC18F0010115EF23F07EEC18F06E
:103CF00003014B6B01C04AF301C04BF34A6B000157
:103D00007EEC18F0015003014A27000E4B234BC3F1
:103D10007BF34AC37AF30001E6EC18F0010115EFDA
:103D200023F07EEC18F00301436B01C042F3416BBA
:103D3000435303E14251415D0FE200017EEC18F074
:103D400001C04AF303017B6B01C07AF30001E6EC8A
:103D500018F00301412BECD743C37BF342C37AF342
:103D60000001E6EC18F0010115EF23F0010E01014E
:103D7000D42503014A6F000E0101D52103014B6FC9
:103D80007B6F4AC37AF30001E6EC18F07EEC18F082
:103D900001500101D427000ED52315EF23F0020EA8
:103DA0000101D42503014A6F000E0101D521030151
:103DB0004B6F7B6F4AC37AF30001E6EC18F07EECA0
:103DC00018F003014B6B01C04AF301C04BF34A6B7F
:103DD00000017EEC18F0015003014A25016E000E2F
:103DE0004B21036E01500101D4270350D52315EF59
:103DF00023F0B5EC18F002C049F301C048F301010B
:103E0000D5510301495D0EE308E148510101D45D3C
:103E1000D8A002D0030106D0030149C3D5F148C39D
:103E2000D4F128D049C3D5F148C3D4F10001B5EC91
:103E300018F002C0B0F101C0AFF10101B05303E1CD
:103E4000AF51010804E2AF51D8B4B007AF07AF2DAE
:103E500002D0B0530EE0B0C17BF3AFC17AF30001E2
:103E6000E6EC18F0D5C17BF3D4C17AF3E6EC18F098
:103E7000010103010201C26B050EC16F010115EFC3
:103E800023F0B5EC18F00150021009E0B5EC18F081
:103E9000B5EC18F002C0D5F101C0D4F111D0B5ECE9
:103EA00018F002C0D5F101C0D4F1D5C17BF3D4C163
:103EB0007AF3E6EC18F00201C26B050EC16F000147
:103EC000010115EF23F07EEC18F00301496B01C0EE
:103ED00048F30001FEEC18F002C043F301C042F3C6
:103EE00043C34DF342C34CF3CAEC18F003014851ED
:103EF00042254A6F495143214B6FD8904A35026E93
:103F00004B35036E02502D0FE96E010E0320EA6E51
:103F1000ECCF4BF3ED52EFCF4AF34BC37BF34AC3E5
:103F20007AF30001E6EC18F001017FD30301405160
:103F3000080808E10001B5EC18F002C049F301C01F
:103F400048F303010001FEEC18F002C043F301C086
:103F500042F3FEEC18F002C0D5F101C0D4F1FEEC42
:103F600018F002C045F301C044F30301455308E1D2
:103F70002A50445D05E20001B5EC18F0F6D70301C4
:103F800043530AE101012C510301425D05E20001A6
:103F9000FEEC18F00301F4D74051080808E149C3CA
:103FA0007BF348C37AF30001E6EC18F0030101014A
:103FB0003CD3B5EC18F002C0AEF101C0ADF1B5ECE8
:103FC00018F002C0B0F101C0AFF1D5C17BF3D4C18C
:103FD0007AF3E6EC18F00101B05303E1AF510108A8
:103FE00013E2B0C17BF3AFC17AF30001E6EC18F045
:103FF000AEC17BF3ADC17AF3E6EC18F0AEC1D5F1FA
:10400000ADC1D4F111D00101AF2D07D0B05305E1FE
:10401000AEC1D5F1ADC1D4F108D00001B5EC18F0B6
:1040200002C0D5F101C0D4F10101FFD2B5EC18F006
:1040300002C043F301C042F3B5EC18F002C045F3EF
:1040400001C044F30301445145110CE0D5C17BF399
:10405000D4C17AF30001E6EC18F043C3D5F142C3B2
:10406000D4F103010101E1D2B5EC18F002C043F331
:1040700001C042F3B5EC18F002C045F301C044F3AF
:10408000B5EC18F002C047F301C046F3D5C17BF38D
:10409000D4C17AF3E6EC18F003014651471105E06C
:1040A00045C3D5F144C3D4F104D043C3D5F142C3D1
:1040B000D4F10101BAD293EC10F00101B6D20101A2
:1040C000B4D2B5EC18F002C0AEF101C0ADF1D5C16B
:1040D0007BF3D4C17AF3E6EC18F0AEC17BF3ADC14B
:1040E0007AF3E6EC18F0AEC1D5F1ADC1D4F101011F
:1040F0009CD2B5EC18F002C0AEF101C0ADF10101E7
:10410000B06BAF6B03017B6B7A6B0001E6EC18F0D0
:10411000AEC17BF3ADC17AF3E6EC18F0AEC1D5F1D8
:10412000ADC1D4F1010181D2B5EC18F002C0C0F2EA
:1041300001C0BFF2010179D2C4C27BF3C3C27AF3DA
:10414000E6EC18F0010171D20201C46BC36B0101EE
:104150006CD2B5EC18F002C049F301C048F349C372
:104160004AF303014B6B48C34CF34D6B49C3EAF36D
:10417000000115EC14F04CC3EAF315EC14F0010146
:1041800054D20201EEB10AD0BEA108D0010E030143
:104190007C6F000114EC0BF0F4D70201E5C27BF355
:1041A000E4C27AF30001E6EC18F00201EE9101019D
:1041B0003CD2000E0201EEB1010E03014A6F7B6B8F
:1041C0007A6F0001E6EC18F001012FD20201BD5315
:1041D00010E1BEA10ED0020E03014A6FFA0EED6F80
:1041E0000001E9EC11F003014A2FF8D70001EED7E6
:1041F000020103017B6BBDC27AF30001E6EC18F00B
:104200000101B19F12D2000E0101B1BF010E0301E5
:104210004A6F7B6B7A6F0001E6EC18F0010105D262
:1042200069EF19F002C04BF301C04AF302C07BF3FF
:1042300001C07AF3E6EC18F00101F7D1B5EC18F003
:1042400002C045F301C044F3B5EC18F002C043F3DB
:1042500001C042F3170E0301405DF50FD8B090D0B6
:104260000B0F000118EF23F0030144514227455181
:10427000432386D003014451425F4551435B80D0C4
:10428000196AF2BE198EF29E43C36DF542C36CF5F6
:1042900045C36FF544C36EF570EC01F019BEF28EA4
:1042A00002C043F301C042F303016AD043C34EF39B
:1042B00042C34DF345C350F344C34FF346EC19F0EA
:1042C00002C043F301C042F303015AD043C34EF38B
:1042D00042C34DF345C350F344C34FF346EC19F0CA
:1042E00000C042F3030103C043F34AD00301445129
:1042F000425D03E14551435D02E0000E01D0010E35
:10430000436B426F3DD003014551435D04E305E13A
:104310004251445D02E3000E01D0010E436B426F37
:104320002FD003014351455D04E305E14451425D53
:1043300002E3000E01D0010E436B426F21D0030156
:104340004251431103E04451451102E1000E01D0F6
:10435000010E436B426F14D003014251431105E13A
:104360004451451102E1000E01D0010E436B426F32
:1043700007D003014451421B4551431B01D00301A7
:1043800043C37BF342C37AF30001E6EC18F001016A
:104390004CD1B5EC18F001500210000ED8B4010E4B
:1043A00003014A6F7B6B7A6F0001E6EC18F00101A4
:1043B0003CD1B5EC18F002C049F301C048F3B5ECAC
:1043C00018F002C04BF3D89003010134026E4B3554
:1043D000036E0250B20FE96E010E0320EA6E49C36C
:1043E000ECFFED5248C3EFFF01011FD1B5EC18F00F
:1043F00002C04BF3D89003010134026E4B35036EBB
:104400000250B20FE96E010E0320EA6EECCF4BF3BF
:10441000ED52EFCF4AF34BC37BF34AC37AF300016B
:10442000E6EC18F0010101D1B5EC18F002C045F33B
:1044300001C044F3B5EC18F0D89003010134426F89
:104440000234436F0001B5EC18F001C048F30301DA
:104450006E0E0224496F425148254A6F435149214B
:104460004B6FD8904A374B374BC3EDF34AC3ECF34D
:10447000000198EC10F045C3E7F344C3E6F3B1EC58
:1044800011F00101D2D0B5EC18F0D890030101343D
:10449000426F0234436F0001B5EC18F001C048F3DD
:1044A00003016E0E0224496F425148254A6F435161
:1044B0004921F2CF4CF3F29EF86AF76E4AC3F6FF39
:1044C0000900F5500800F5CF03F0F86A4CBFF28EF2
:1044D000446F03C045F345C37BF344C37AF3000143
:1044E000E6EC18F00101A1D0B5EC18F002C049F3D8
:1044F00001C048F30101D3C103F0D251D22BD8B48B
:10450000D32B03014A6F03C04BF3D8904A35026E98
:104510000334036E02C04AF3500E03244B6FED6F59
:1045200002C0ECF3000198EC10F049C3E7F348C374
:10453000E6F3B1EC11F0790E0301ED6FF00EEC6FC4
:10454000000198EC10F0D3C1E7F3D2C1E6F3B1EC6F
:1045500011F001016AD0D8900101D235026ED33535
:10456000036E0301500E0324F2CF4CF3F29EF86A5F
:10457000F76E02C0F6FF0900F5500800F5CF03F012
:10458000F86A4CBFF28E486F03C049F30101D22B89
:10459000D8B4D32B49C37BF348C37AF30001E6ECCC
:1045A00018F0010142D00101D36BD26B3ED0B5ECC3
:1045B00018F002C0D3F101C0D2F1010136D0B5EC40
:1045C00018F0D89003010134426F0234436F496BF5
:1045D000486B4951435D1FE303E14251485D1BE2D3
:1045E000D8904835026E4935036E02C04AF3500E2A
:1045F00003244B6FED6F02C0ECF3000198EC10F058
:104600000301E76BE66B0001B1EC11F00301482BED
:10461000D8B4492BDED70101D36BD26B06D0000191
:1046200040C34AF35BEF1AF0010100011EEF24F0D2
:10463000E824F76AF7364B0FF66E460EF7220A00AB
:10464000F550FA6E0800F550F96E684274428042E7
:10465000AC42CC42EC42064322433E4358437243B1
:10466000F86AD09E078E93829380770EC86E280ECC
:10467000C66EC78EC79C0101AE6BAD6BB06BAF6BE6
:10468000B191020E02015C6F0101B19302019D6BB9
:104690000101B195B19702019F6BA16BA26B010162
:1046A000B199B19BB19D0201B96B690EBB6FBA693B
:1046B000BC6B0101B19F0201BE91BE93BE95C06B60
:1046C000BF6BC26BC16BC46BC36BC56BDA6BDB6B4F
:1046D000DC6BDD6BBE97DE6BDF6BBE89BE9BE56B73
:1046E000E46BE76BE66BBE8DE96BE86BEA6BBE8F44
:1046F000ED6BEE91EF6BEE93F06BEE950301316B8A
:10470000346B356BC150C00B0F09C16E070EB46E10
:104710001FD003001E00040C2041B2000201D8008B
:10472000007E41DE0018025D0C7C1F7C177C1A7C29
:104730000D7C0A7C1C7C1B7C0B7C1E7C167C197CF3
:104740000A42A3FF0CC0000402E0B0B2B4B60000FD
:10475000000EF86E470EF76E120EF66E0900F55059
:10476000006E000A13E00900F550016EE8BE05D0A6
:104770000F0BEA6E0900F5CFE9FF01BC090001AC9F
:104780000900F5CFEEFF004EE9D7F9D7F86A00012E
:1047900090EF0AF05FEF0BF0F2CF40F3F29EF86A71
:1047A000790EF76EF20EF66E0900F5500800F5CF9F
:1047B00003F0F86A030140BFF28E406F03C041F37B
:1047C000416B402D0CD041530AE1196AF2BE198E9B
:1047D000F29E0001CEEC07F019BEF28E030100013B
:1047E00079EF14F08FEF16F06FEF17F05AEF18F023
:1047F00066EF18F00201EEA510D0010E0301EB6F79
:10480000ED6FDE0EEC6FEF6B3F0EEE6F020EF06F92
:104810000001B2EC13F00201EE95BEA111D0BF5120
:10482000C0110DE1C151C2110AE100017EEC18F086
:1048300001C03FF33FC340F358EF1DF002010BD01E
:104840000101B1AD07D00201A26B0001B6EC0AF084
:104850000101B19D02010001A1EC13F0C1D70300D9
:0250000012009C
:020000040030CA
:0E00000024CE2E1E0007A1000FC00FE00F40FF
:00000001FF
;PIC18F4550
;CRC=01C6  CREATED="06-Jan-15 17:09"
